:02000000D728FF
:1000060083169C1C08280000032829089B002A0840
:100016009A009C131C150B08D0008B1355309D00BD
:10002600AA309D009C14D01B1A288B131B288B17F3
:040036001C11080091
:10003A008312280883169B009C131C141A08D000EC
:02004A000800AC
:10004C008312851083168510043083128506413087
:10005C00DC00EE30DD00DD0B3128DC0B312800003C
:10006C00043085060230DB000430DC00BA30DD00E1
:10007C00DD0B3E28DC0B3E28DB0B3E2800008316F4
:08008C0085148312851408009D
:100094008312051285122208D000D00D5010D00D05
:1000A4005010D00D5010D00D501050088504A901E7
:0800B4002208AA000320080045
:0C00BC00831225088A0024088200080036
:1000C8000430831285068230DC00DD30DD00DD0B74
:1000D8006B28DC0B6B28000000000430850682309A
:1000E800DC00DD30DD00DD0B7728DC0B7728000035
:0400F80000000800FC
:1000FC0083168101951407308312990083169F0192
:10010C000B3085008312851485150511A8011D205F
:10011C005008A200831285155008033C0318972839
:10012C00A2012208A8004A2026200A308316960035
:10013C008B158B13A701053027020318BC288312DB
:10014C0005154130DC00EE30DD00DD0BAB28DC0B9F
:10015C00AB28000005114130DC00EE30DD00DD0B7A
:0E016C00B528DC0BB5280000A70AA128080062
:10017A005E208A110A128000840AA40A0319A50AB9
:08018A00D003031DBD2808008D
:06019200831205150800B0
:100198008312A20A03302205D0005008A20050089A
:0601A800A8004A20080037
:1001AE008312A001A101A201A3017E20C92068290A
:1001BE008312851DE528851CE528F128A00A8230CA
:1001CE00DC00DD30DD00DD0BEA28DC0BEA28000068
:1001DE00000007292108003C0318FA280130A3006B
:1001EE00A601A0010729A00163000B108230DC00DC
:1001FE00DD30DD00DD0B0129DC0B012900000000E4
:10020E0020080A3C03180E29A10AA00164207D29AA
:10021E002C290430A30045290230A30045290330C0
:10022E00A300A20145290330A3000130A2004529F5
:10023E000330A3000230A20045290330A30003308F
:10024E00A20045290430A30045292108013A0319CB
:10025E0010292108023A031913292108033A031918
:10026E0016292108043A03191A292108053A0319F7
:10027E001F292108063A031924292929A1017D29BC
:10028E000430A300CC201A30DC00F830DD00DD0B8A
:10029E004E29DC0B4E2900007D290430A3002208D4
:1002AE00A8004A201A30DC00F830DD00DD0B5D2995
:1002BE00DC0B5D2900007D29A3012620A0017D29EC
:1002CE007D292308003A0319DF282308013A031970
:1002DE000F292308023A031947292308033A031961
:1002EE0054292308043A031963296729DD287E2936
:02400E009431EB
:00000001FF
